{
  "contractName": "DeathNote",
  "abi": [
    {
      "inputs": [
        {
          "internalType": "address[]",
          "name": "_validators",
          "type": "address[]"
        },
        {
          "internalType": "address[]",
          "name": "_beneficiaries",
          "type": "address[]"
        },
        {
          "internalType": "uint256[]",
          "name": "_shares",
          "type": "uint256[]"
        },
        {
          "internalType": "uint256",
          "name": "_confirmationsRequired",
          "type": "uint256"
        },
        {
          "internalType": "uint256",
          "name": "_waitingPeriodDays",
          "type": "uint256"
        }
      ],
      "payable": true,
      "stateMutability": "payable",
      "type": "constructor"
    },
    {
      "anonymous": false,
      "inputs": [
        {
          "indexed": true,
          "internalType": "address",
          "name": "sender",
          "type": "address"
        },
        {
          "indexed": false,
          "internalType": "uint256",
          "name": "amount",
          "type": "uint256"
        }
      ],
      "name": "ClaimShare",
      "type": "event"
    },
    {
      "anonymous": false,
      "inputs": [
        {
          "indexed": true,
          "internalType": "address",
          "name": "sender",
          "type": "address"
        }
      ],
      "name": "ConfirmDeath",
      "type": "event"
    },
    {
      "anonymous": false,
      "inputs": [
        {
          "indexed": true,
          "internalType": "address",
          "name": "sender",
          "type": "address"
        },
        {
          "indexed": false,
          "internalType": "uint256",
          "name": "amount",
          "type": "uint256"
        },
        {
          "indexed": false,
          "internalType": "uint256",
          "name": "newBalance",
          "type": "uint256"
        }
      ],
      "name": "Deposit",
      "type": "event"
    },
    {
      "anonymous": false,
      "inputs": [
        {
          "indexed": true,
          "internalType": "address",
          "name": "sender",
          "type": "address"
        },
        {
          "indexed": false,
          "internalType": "address[]",
          "name": "newBeneficiaries",
          "type": "address[]"
        },
        {
          "indexed": false,
          "internalType": "uint256[]",
          "name": "newShares",
          "type": "uint256[]"
        }
      ],
      "name": "ReplaceBeneficiaries",
      "type": "event"
    },
    {
      "anonymous": false,
      "inputs": [
        {
          "indexed": true,
          "internalType": "address",
          "name": "sender",
          "type": "address"
        },
        {
          "indexed": false,
          "internalType": "address[]",
          "name": "newValidators",
          "type": "address[]"
        },
        {
          "indexed": false,
          "internalType": "uint256",
          "name": "newConfReq",
          "type": "uint256"
        }
      ],
      "name": "ReplaceValidators",
      "type": "event"
    },
    {
      "anonymous": false,
      "inputs": [
        {
          "indexed": true,
          "internalType": "address",
          "name": "creator",
          "type": "address"
        }
      ],
      "name": "RevokeTestament",
      "type": "event"
    },
    {
      "anonymous": false,
      "inputs": [
        {
          "indexed": true,
          "internalType": "address",
          "name": "sender",
          "type": "address"
        },
        {
          "indexed": false,
          "internalType": "uint256",
          "name": "amount",
          "type": "uint256"
        },
        {
          "indexed": false,
          "internalType": "uint256",
          "name": "newBalance",
          "type": "uint256"
        }
      ],
      "name": "Withdrawal",
      "type": "event"
    },
    {
      "constant": true,
      "inputs": [],
      "name": "balance",
      "outputs": [
        {
          "internalType": "uint256",
          "name": "",
          "type": "uint256"
        }
      ],
      "payable": false,
      "stateMutability": "view",
      "type": "function"
    },
    {
      "constant": true,
      "inputs": [],
      "name": "balanceFrozen",
      "outputs": [
        {
          "internalType": "uint256",
          "name": "",
          "type": "uint256"
        }
      ],
      "payable": false,
      "stateMutability": "view",
      "type": "function"
    },
    {
      "constant": true,
      "inputs": [],
      "name": "confirmationsRequired",
      "outputs": [
        {
          "internalType": "uint256",
          "name": "",
          "type": "uint256"
        }
      ],
      "payable": false,
      "stateMutability": "view",
      "type": "function"
    },
    {
      "constant": true,
      "inputs": [],
      "name": "creator",
      "outputs": [
        {
          "internalType": "address payable",
          "name": "",
          "type": "address"
        }
      ],
      "payable": false,
      "stateMutability": "view",
      "type": "function"
    },
    {
      "constant": true,
      "inputs": [],
      "name": "deadline",
      "outputs": [
        {
          "internalType": "uint256",
          "name": "",
          "type": "uint256"
        }
      ],
      "payable": false,
      "stateMutability": "view",
      "type": "function"
    },
    {
      "constant": true,
      "inputs": [],
      "name": "firstClaim",
      "outputs": [
        {
          "internalType": "bool",
          "name": "",
          "type": "bool"
        }
      ],
      "payable": false,
      "stateMutability": "view",
      "type": "function"
    },
    {
      "constant": true,
      "inputs": [],
      "name": "numConfirmations",
      "outputs": [
        {
          "internalType": "uint256",
          "name": "",
          "type": "uint256"
        }
      ],
      "payable": false,
      "stateMutability": "view",
      "type": "function"
    },
    {
      "constant": true,
      "inputs": [],
      "name": "testamentRevoked",
      "outputs": [
        {
          "internalType": "bool",
          "name": "",
          "type": "bool"
        }
      ],
      "payable": false,
      "stateMutability": "view",
      "type": "function"
    },
    {
      "constant": true,
      "inputs": [
        {
          "internalType": "uint256",
          "name": "",
          "type": "uint256"
        }
      ],
      "name": "trackBeneficiaries",
      "outputs": [
        {
          "internalType": "address",
          "name": "",
          "type": "address"
        }
      ],
      "payable": false,
      "stateMutability": "view",
      "type": "function"
    },
    {
      "constant": true,
      "inputs": [
        {
          "internalType": "uint256",
          "name": "",
          "type": "uint256"
        }
      ],
      "name": "trackValidators",
      "outputs": [
        {
          "internalType": "address",
          "name": "",
          "type": "address"
        }
      ],
      "payable": false,
      "stateMutability": "view",
      "type": "function"
    },
    {
      "constant": true,
      "inputs": [],
      "name": "waitingPeriodDays",
      "outputs": [
        {
          "internalType": "uint256",
          "name": "",
          "type": "uint256"
        }
      ],
      "payable": false,
      "stateMutability": "view",
      "type": "function"
    },
    {
      "constant": false,
      "inputs": [],
      "name": "confirmDeath",
      "outputs": [],
      "payable": false,
      "stateMutability": "nonpayable",
      "type": "function"
    },
    {
      "constant": false,
      "inputs": [],
      "name": "claimInheritanceShare",
      "outputs": [],
      "payable": false,
      "stateMutability": "nonpayable",
      "type": "function"
    },
    {
      "constant": false,
      "inputs": [],
      "name": "revokeTestament",
      "outputs": [],
      "payable": false,
      "stateMutability": "nonpayable",
      "type": "function"
    },
    {
      "constant": false,
      "inputs": [],
      "name": "deposit",
      "outputs": [],
      "payable": true,
      "stateMutability": "payable",
      "type": "function"
    },
    {
      "constant": false,
      "inputs": [
        {
          "internalType": "uint256",
          "name": "_amount",
          "type": "uint256"
        }
      ],
      "name": "withdraw",
      "outputs": [],
      "payable": false,
      "stateMutability": "nonpayable",
      "type": "function"
    },
    {
      "constant": false,
      "inputs": [
        {
          "internalType": "address[]",
          "name": "_newValidators",
          "type": "address[]"
        },
        {
          "internalType": "uint256",
          "name": "_newConfReq",
          "type": "uint256"
        }
      ],
      "name": "replaceValidators",
      "outputs": [],
      "payable": false,
      "stateMutability": "nonpayable",
      "type": "function"
    },
    {
      "constant": false,
      "inputs": [
        {
          "internalType": "address[]",
          "name": "_newBeneficiaries",
          "type": "address[]"
        },
        {
          "internalType": "uint256[]",
          "name": "_newShares",
          "type": "uint256[]"
        }
      ],
      "name": "replaceBeneficiaries",
      "outputs": [],
      "payable": false,
      "stateMutability": "nonpayable",
      "type": "function"
    }
  ],
  "bytecode": "0x60806040526001600760006101000a81548160ff0219169083151502179055506040516200310638038062003106833981810160405260a08110156200004457600080fd5b81019080805160405193929190846401000000008211156200006557600080fd5b838201915060208201858111156200007c57600080fd5b82518660208202830111640100000000821117156200009a57600080fd5b8083526020830192505050908051906020019060200280838360005b83811015620000d3578082015181840152602081019050620000b6565b5050505090500160405260200180516040519392919084640100000000821115620000fd57600080fd5b838201915060208201858111156200011457600080fd5b82518660208202830111640100000000821117156200013257600080fd5b8083526020830192505050908051906020019060200280838360005b838110156200016b5780820151818401526020810190506200014e565b50505050905001604052602001805160405193929190846401000000008211156200019557600080fd5b83820191506020820185811115620001ac57600080fd5b8251866020820283011164010000000082111715620001ca57600080fd5b8083526020830192505050908051906020019060200280838360005b8381101562000203578082015181840152602081019050620001e6565b50505050905001604052602001805190602001909291908051906020019092919050505084826000825111620002a1576040517f08c379a00000000000000000000000000000000000000000000000000000000081526004018080602001828103825260138152602001807f56616c696461746f72732072657175697265640000000000000000000000000081525060200191505060405180910390fd5b600081118015620002b3575081518111155b6200030a576040517f08c379a0000000000000000000000000000000000000000000000000000000008152600401808060200182810382526028815260200180620030de6028913960400191505060405180910390fd5b8585600082511162000384576040517f08c379a00000000000000000000000000000000000000000000000000000000081526004018080602001828103825260168152602001807f42656e656669636961726965732072657175697265640000000000000000000081525060200191505060405180910390fd5b8051825114620003e0576040517f08c379a0000000000000000000000000000000000000000000000000000000008152600401808060200182810382526024815260200180620030ba6024913960400191505060405180910390fd5b600080905060008090505b82518110156200041c578281815181106200040257fe5b6020026020010151820191508080600101915050620003eb565b506064811462000478576040517f08c379a0000000000000000000000000000000000000000000000000000000008152600401808060200182810382526024815260200180620030966024913960400191505060405180910390fd5b60008090505b8a51811015620006d95760008b82815181106200049757fe5b60200260200101519050600073ffffffffffffffffffffffffffffffffffffffff168173ffffffffffffffffffffffffffffffffffffffff16141562000545576040517f08c379a00000000000000000000000000000000000000000000000000000000081526004018080602001828103825260118152602001807f496e76616c69642076616c696461746f7200000000000000000000000000000081525060200191505060405180910390fd5b600960008273ffffffffffffffffffffffffffffffffffffffff1673ffffffffffffffffffffffffffffffffffffffff16815260200190815260200160002060000160009054906101000a900460ff161562000609576040517f08c379a00000000000000000000000000000000000000000000000000000000081526004018080602001828103825260148152602001807f4e6f6e2d756e697175652076616c696461746f7200000000000000000000000081525060200191505060405180910390fd5b6001600960008373ffffffffffffffffffffffffffffffffffffffff1673ffffffffffffffffffffffffffffffffffffffff16815260200190815260200160002060000160006101000a81548160ff02191690831515021790555060018190806001815401808255809150509060018203906000526020600020016000909192909190916101000a81548173ffffffffffffffffffffffffffffffffffffffff021916908373ffffffffffffffffffffffffffffffffffffffff160217905550505080806001019150506200047e565b5060008090505b8951811015620009965760008a8281518110620006f957fe5b60200260200101519050600073ffffffffffffffffffffffffffffffffffffffff168173ffffffffffffffffffffffffffffffffffffffff161415620007a7576040517f08c379a00000000000000000000000000000000000000000000000000000000081526004018080602001828103825260138152602001807f496e76616c69642062656e65666963696172790000000000000000000000000081525060200191505060405180910390fd5b600a60008273ffffffffffffffffffffffffffffffffffffffff1673ffffffffffffffffffffffffffffffffffffffff16815260200190815260200160002060000160009054906101000a900460ff16156200086b576040517f08c379a00000000000000000000000000000000000000000000000000000000081526004018080602001828103825260168152602001807f4e6f6e2d756e697175652062656e65666963696172790000000000000000000081525060200191505060405180910390fd5b6001600a60008373ffffffffffffffffffffffffffffffffffffffff1673ffffffffffffffffffffffffffffffffffffffff16815260200190815260200160002060000160006101000a81548160ff021916908315150217905550898281518110620008d357fe5b6020026020010151600a60008373ffffffffffffffffffffffffffffffffffffffff1673ffffffffffffffffffffffffffffffffffffffff1681526020019081526020016000206001018190555060028190806001815401808255809150509060018203906000526020600020016000909192909190916101000a81548173ffffffffffffffffffffffffffffffffffffffff021916908373ffffffffffffffffffffffffffffffffffffffff16021790555050508080600101915050620006e0565b5086600381905550336000806101000a81548173ffffffffffffffffffffffffffffffffffffffff021916908373ffffffffffffffffffffffffffffffffffffffff160217905550346005819055506000600b8190555085600481905550505050505050505050506126888062000a0e6000396000f3fe6080604052600436106101095760003560e01c80637ce5437011610095578063cc669ef811610064578063cc669ef81461057b578063d0e30db014610592578063dc108deb1461059c578063df86e8f3146105c7578063e8b2c2431461064257610109565b80637ce54370146104df57806396fb5bb41461050e578063af8979fd14610539578063b69ef8a81461055057610109565b806330c6c058116100dc57806330c6c058146101f657806340642d5c1461034f578063508427351461041e5780635314bd08146104355780635d0f0cc71461046457610109565b806302d05d3f1461010e578063245206d51461016557806329dcb0cf146101905780632e1a7d4d146101bb575b600080fd5b34801561011a57600080fd5b5061012361066d565b604051808273ffffffffffffffffffffffffffffffffffffffff1673ffffffffffffffffffffffffffffffffffffffff16815260200191505060405180910390f35b34801561017157600080fd5b5061017a610692565b6040518082815260200191505060405180910390f35b34801561019c57600080fd5b506101a5610698565b6040518082815260200191505060405180910390f35b3480156101c757600080fd5b506101f4600480360360208110156101de57600080fd5b810190808035906020019092919050505061069e565b005b34801561020257600080fd5b5061034d6004803603604081101561021957600080fd5b810190808035906020019064010000000081111561023657600080fd5b82018360208201111561024857600080fd5b8035906020019184602083028401116401000000008311171561026a57600080fd5b919080806020026020016040519081016040528093929190818152602001838360200280828437600081840152601f19601f820116905080830192505050505050509192919290803590602001906401000000008111156102ca57600080fd5b8201836020820111156102dc57600080fd5b803590602001918460208302840111640100000000831117156102fe57600080fd5b919080806020026020016040519081016040528093929190818152602001838360200280828437600081840152601f19601f82011690508083019250505050505050919291929050505061097e565b005b34801561035b57600080fd5b5061041c6004803603604081101561037257600080fd5b810190808035906020019064010000000081111561038f57600080fd5b8201836020820111156103a157600080fd5b803590602001918460208302840111640100000000831117156103c357600080fd5b919080806020026020016040519081016040528093929190818152602001838360200280828437600081840152601f19601f8201169050808301925050505050505091929192908035906020019092919050505061119b565b005b34801561042a57600080fd5b50610433611849565b005b34801561044157600080fd5b5061044a611ab6565b604051808215151515815260200191505060405180910390f35b34801561047057600080fd5b5061049d6004803603602081101561048757600080fd5b8101908080359060200190929190505050611ac9565b604051808273ffffffffffffffffffffffffffffffffffffffff1673ffffffffffffffffffffffffffffffffffffffff16815260200191505060405180910390f35b3480156104eb57600080fd5b506104f4611b05565b604051808215151515815260200191505060405180910390f35b34801561051a57600080fd5b50610523611b18565b6040518082815260200191505060405180910390f35b34801561054557600080fd5b5061054e611b1e565b005b34801561055c57600080fd5b50610565611d52565b6040518082815260200191505060405180910390f35b34801561058757600080fd5b50610590611d58565b005b61059a612262565b005b3480156105a857600080fd5b506105b16124d7565b6040518082815260200191505060405180910390f35b3480156105d357600080fd5b50610600600480360360208110156105ea57600080fd5b81019080803590602001909291905050506124dd565b604051808273ffffffffffffffffffffffffffffffffffffffff1673ffffffffffffffffffffffffffffffffffffffff16815260200191505060405180910390f35b34801561064e57600080fd5b50610657612519565b6040518082815260200191505060405180910390f35b6000809054906101000a900473ffffffffffffffffffffffffffffffffffffffff1681565b60045481565b600b5481565b6000809054906101000a900473ffffffffffffffffffffffffffffffffffffffff1673ffffffffffffffffffffffffffffffffffffffff163373ffffffffffffffffffffffffffffffffffffffff1614610743576040517f08c379a000000000000000000000000000000000000000000000000000000000815260040180806020018281038252602d815260200180612544602d913960400191505060405180910390fd5b6000600b5414806107555750600b5442105b6107aa576040517f08c379a00000000000000000000000000000000000000000000000000000000081526004018080602001828103825260358152602001806125f76035913960400191505060405180910390fd5b60001515600c60009054906101000a900460ff16151514610833576040517f08c379a000000000000000000000000000000000000000000000000000000000815260040180806020018281038252601a8152602001807f54657374616d656e7420686173206265656e207265766f6b656400000000000081525060200191505060405180910390fd5b6005548111156108ab576040517f08c379a00000000000000000000000000000000000000000000000000000000081526004018080602001828103825260168152602001807f42616c616e6365206e6f742073756666696369656e740000000000000000000081525060200191505060405180910390fd5b806005600082825403925050819055506000809054906101000a900473ffffffffffffffffffffffffffffffffffffffff1673ffffffffffffffffffffffffffffffffffffffff166108fc829081150290604051600060405180830381858888f19350505050158015610922573d6000803e3d6000fd5b503373ffffffffffffffffffffffffffffffffffffffff167fdf273cb619d95419a9cd0ec88123a0538c85064229baa6363788f743fff90deb82600554604051808381526020018281526020019250505060405180910390a250565b6000809054906101000a900473ffffffffffffffffffffffffffffffffffffffff1673ffffffffffffffffffffffffffffffffffffffff163373ffffffffffffffffffffffffffffffffffffffff1614610a23576040517f08c379a000000000000000000000000000000000000000000000000000000000815260040180806020018281038252602d815260200180612544602d913960400191505060405180910390fd5b6000600b541480610a355750600b5442105b610a8a576040517f08c379a00000000000000000000000000000000000000000000000000000000081526004018080602001828103825260358152602001806125f76035913960400191505060405180910390fd5b60001515600c60009054906101000a900460ff16151514610b13576040517f08c379a000000000000000000000000000000000000000000000000000000000815260040180806020018281038252601a8152602001807f54657374616d656e7420686173206265656e207265766f6b656400000000000081525060200191505060405180910390fd5b81816000825111610b8c576040517f08c379a00000000000000000000000000000000000000000000000000000000081526004018080602001828103825260168152602001807f42656e656669636961726965732072657175697265640000000000000000000081525060200191505060405180910390fd5b8051825114610be6576040517f08c379a00000000000000000000000000000000000000000000000000000000081526004018080602001828103825260248152602001806125d36024913960400191505060405180910390fd5b600080905060008090505b8251811015610c1f57828181518110610c0657fe5b6020026020010151820191508080600101915050610bf1565b5060648114610c79576040517f08c379a00000000000000000000000000000000000000000000000000000000081526004018080602001828103825260248152602001806125206024913960400191505060405180910390fd5b600060085414610cd4576040517f08c379a000000000000000000000000000000000000000000000000000000000815260040180806020018281038252603e815260200180612595603e913960400191505060405180910390fd5b60008090505b600280549050811015610d9d57600a600060028381548110610cf857fe5b9060005260206000200160009054906101000a900473ffffffffffffffffffffffffffffffffffffffff1673ffffffffffffffffffffffffffffffffffffffff1673ffffffffffffffffffffffffffffffffffffffff168152602001908152602001600020600080820160006101000a81549060ff021916905560018201600090556002820160006101000a81549060ff021916905550508080600101915050610cda565b506000600280549050905060008090505b81811015610e03576002805480610dc157fe5b6001900381819060005260206000200160006101000a81549073ffffffffffffffffffffffffffffffffffffffff021916905590558080600101915050610dae565b5060008090505b86518110156110ba576000878281518110610e2157fe5b60200260200101519050600073ffffffffffffffffffffffffffffffffffffffff168173ffffffffffffffffffffffffffffffffffffffff161415610ece576040517f08c379a00000000000000000000000000000000000000000000000000000000081526004018080602001828103825260138152602001807f496e76616c69642062656e65666963696172790000000000000000000000000081525060200191505060405180910390fd5b600a60008273ffffffffffffffffffffffffffffffffffffffff1673ffffffffffffffffffffffffffffffffffffffff16815260200190815260200160002060000160009054906101000a900460ff1615610f91576040517f08c379a00000000000000000000000000000000000000000000000000000000081526004018080602001828103825260168152602001807f4e6f6e2d756e697175652062656e65666963696172790000000000000000000081525060200191505060405180910390fd5b6001600a60008373ffffffffffffffffffffffffffffffffffffffff1673ffffffffffffffffffffffffffffffffffffffff16815260200190815260200160002060000160006101000a81548160ff021916908315150217905550868281518110610ff857fe5b6020026020010151600a60008373ffffffffffffffffffffffffffffffffffffffff1673ffffffffffffffffffffffffffffffffffffffff1681526020019081526020016000206001018190555060028190806001815401808255809150509060018203906000526020600020016000909192909190916101000a81548173ffffffffffffffffffffffffffffffffffffffff021916908373ffffffffffffffffffffffffffffffffffffffff16021790555050508080600101915050610e0a565b503373ffffffffffffffffffffffffffffffffffffffff167fa05cbe74a79edeb8e576002166ba5a35cea4faf252d9b9747fddcda0277fd6288787604051808060200180602001838103835285818151815260200191508051906020019060200280838360005b8381101561113c578082015181840152602081019050611121565b50505050905001838103825284818151815260200191508051906020019060200280838360005b8381101561117e578082015181840152602081019050611163565b5050505090500194505050505060405180910390a2505050505050565b6000809054906101000a900473ffffffffffffffffffffffffffffffffffffffff1673ffffffffffffffffffffffffffffffffffffffff163373ffffffffffffffffffffffffffffffffffffffff1614611240576040517f08c379a000000000000000000000000000000000000000000000000000000000815260040180806020018281038252602d815260200180612544602d913960400191505060405180910390fd5b6000600b5414806112525750600b5442105b6112a7576040517f08c379a00000000000000000000000000000000000000000000000000000000081526004018080602001828103825260358152602001806125f76035913960400191505060405180910390fd5b60001515600c60009054906101000a900460ff16151514611330576040517f08c379a000000000000000000000000000000000000000000000000000000000815260040180806020018281038252601a8152602001807f54657374616d656e7420686173206265656e207265766f6b656400000000000081525060200191505060405180910390fd5b818160008251116113a9576040517f08c379a00000000000000000000000000000000000000000000000000000000081526004018080602001828103825260138152602001807f56616c696461746f72732072657175697265640000000000000000000000000081525060200191505060405180910390fd5b6000811180156113ba575081518111155b61140f576040517f08c379a000000000000000000000000000000000000000000000000000000000815260040180806020018281038252602881526020018061262c6028913960400191505060405180910390fd5b60008090505b6001805490508110156114d057600960006001838154811061143357fe5b9060005260206000200160009054906101000a900473ffffffffffffffffffffffffffffffffffffffff1673ffffffffffffffffffffffffffffffffffffffff1673ffffffffffffffffffffffffffffffffffffffff168152602001908152602001600020600080820160006101000a81549060ff02191690556000820160016101000a81549060ff021916905550508080600101915050611415565b506000600180549050905060008090505b818110156115365760018054806114f457fe5b6001900381819060005260206000200160006101000a81549073ffffffffffffffffffffffffffffffffffffffff0219169055905580806001019150506114e1565b5060006008819055506000600b8190555060008090505b85518110156117a357600086828151811061156457fe5b60200260200101519050600073ffffffffffffffffffffffffffffffffffffffff168173ffffffffffffffffffffffffffffffffffffffff161415611611576040517f08c379a00000000000000000000000000000000000000000000000000000000081526004018080602001828103825260118152602001807f496e76616c69642076616c696461746f7200000000000000000000000000000081525060200191505060405180910390fd5b600960008273ffffffffffffffffffffffffffffffffffffffff1673ffffffffffffffffffffffffffffffffffffffff16815260200190815260200160002060000160009054906101000a900460ff16156116d4576040517f08c379a00000000000000000000000000000000000000000000000000000000081526004018080602001828103825260148152602001807f4e6f6e2d756e697175652076616c696461746f7200000000000000000000000081525060200191505060405180910390fd5b6001600960008373ffffffffffffffffffffffffffffffffffffffff1673ffffffffffffffffffffffffffffffffffffffff16815260200190815260200160002060000160006101000a81548160ff02191690831515021790555060018190806001815401808255809150509060018203906000526020600020016000909192909190916101000a81548173ffffffffffffffffffffffffffffffffffffffff021916908373ffffffffffffffffffffffffffffffffffffffff1602179055505050808060010191505061154d565b50836003819055503373ffffffffffffffffffffffffffffffffffffffff167fedcf82a53a9cf37b2789570b4367069ecc5927e34c2a41ae9454acbb510c3b6786866040518080602001838152602001828103825284818151815260200191508051906020019060200280838360005b8381101561182e578082015181840152602081019050611813565b50505050905001935050505060405180910390a25050505050565b6000809054906101000a900473ffffffffffffffffffffffffffffffffffffffff1673ffffffffffffffffffffffffffffffffffffffff163373ffffffffffffffffffffffffffffffffffffffff16146118ee576040517f08c379a000000000000000000000000000000000000000000000000000000000815260040180806020018281038252602d815260200180612544602d913960400191505060405180910390fd5b6000600b5414806119005750600b5442105b611955576040517f08c379a00000000000000000000000000000000000000000000000000000000081526004018080602001828103825260358152602001806125f76035913960400191505060405180910390fd5b60001515600c60009054906101000a900460ff161515146119de576040517f08c379a000000000000000000000000000000000000000000000000000000000815260040180806020018281038252601a8152602001807f54657374616d656e7420686173206265656e207265766f6b656400000000000081525060200191505060405180910390fd5b6001600c60006101000a81548160ff0219169083151502179055506000600554905060006005819055506000809054906101000a900473ffffffffffffffffffffffffffffffffffffffff1673ffffffffffffffffffffffffffffffffffffffff166108fc829081150290604051600060405180830381858888f19350505050158015611a6f573d6000803e3d6000fd5b503373ffffffffffffffffffffffffffffffffffffffff167fd952ca96e1f75cd88f690f3ad2778aba9e4e2c2928cb6f0d5f09130ff9acc0d260405160405180910390a250565b600c60009054906101000a900460ff1681565b60028181548110611ad657fe5b906000526020600020016000915054906101000a900473ffffffffffffffffffffffffffffffffffffffff1681565b600760009054906101000a900460ff1681565b60065481565b600960003373ffffffffffffffffffffffffffffffffffffffff1673ffffffffffffffffffffffffffffffffffffffff16815260200190815260200160002060000160009054906101000a900460ff16611bc3576040517f08c379a00000000000000000000000000000000000000000000000000000000081526004018080602001828103825260248152602001806125716024913960400191505060405180910390fd5b600960003373ffffffffffffffffffffffffffffffffffffffff1673ffffffffffffffffffffffffffffffffffffffff16815260200190815260200160002060000160019054906101000a900460ff1615611c86576040517f08c379a000000000000000000000000000000000000000000000000000000000815260040180806020018281038252601e8152602001807f436f6e6669726d6174696f6e20616c7265616479207375626d6974746564000081525060200191505060405180910390fd5b6001600960003373ffffffffffffffffffffffffffffffffffffffff1673ffffffffffffffffffffffffffffffffffffffff16815260200190815260200160002060000160016101000a81548160ff02191690831515021790555060016008600082825401925050819055503373ffffffffffffffffffffffffffffffffffffffff167f6c84ee6176d4bec49b3e11314c973998c997ade846481a7b7bd69a2a8fc5513760405160405180910390a26003546008541415611d50576001600454024201600b819055505b565b60055481565b600a60003373ffffffffffffffffffffffffffffffffffffffff1673ffffffffffffffffffffffffffffffffffffffff16815260200190815260200160002060000160009054906101000a900460ff16611e1a576040517f08c379a00000000000000000000000000000000000000000000000000000000081526004018080602001828103825260198152602001807f596f7520617265206e6f7420612062656e65666963696172790000000000000081525060200191505060405180910390fd5b6000600b541415611e93576040517f08c379a00000000000000000000000000000000000000000000000000000000081526004018080602001828103825260168152602001807f4e6f20636f6e6669726d6564206465617468207965740000000000000000000081525060200191505060405180910390fd5b600b54421015611f0b576040517f08c379a00000000000000000000000000000000000000000000000000000000081526004018080602001828103825260208152602001807f57616974696e6720706572696f6420686173206e6f7420656e6465642079657481525060200191505060405180910390fd5b60001515600c60009054906101000a900460ff16151514611f94576040517f08c379a000000000000000000000000000000000000000000000000000000000815260040180806020018281038252601a8152602001807f54657374616d656e7420686173206265656e207265766f6b656400000000000081525060200191505060405180910390fd5b600a60003373ffffffffffffffffffffffffffffffffffffffff1673ffffffffffffffffffffffffffffffffffffffff16815260200190815260200160002060020160009054906101000a900460ff1615612057576040517f08c379a00000000000000000000000000000000000000000000000000000000081526004018080602001828103825260158152602001807f536861726520616c726561647920636c61696d6564000000000000000000000081525060200191505060405180910390fd5b600760009054906101000a900460ff161561210a57600060055414156120e5576040517f08c379a00000000000000000000000000000000000000000000000000000000081526004018080602001828103825260138152602001807f4e6f20696e6865726974616e6365206c6566740000000000000000000000000081525060200191505060405180910390fd5b6005546006819055506000600760006101000a81548160ff0219169083151502179055505b60006064600654600a60003373ffffffffffffffffffffffffffffffffffffffff1673ffffffffffffffffffffffffffffffffffffffff16815260200190815260200160002060010154028161215c57fe5b049050806005600082825403925050819055503373ffffffffffffffffffffffffffffffffffffffff166108fc829081150290604051600060405180830381858888f193505050501580156121b5573d6000803e3d6000fd5b506001600a60003373ffffffffffffffffffffffffffffffffffffffff1673ffffffffffffffffffffffffffffffffffffffff16815260200190815260200160002060020160006101000a81548160ff0219169083151502179055503373ffffffffffffffffffffffffffffffffffffffff167fb6399d14e58011b0522b498bcb0b8317f6f7a4d298844aad40af030d02ed5f03826040518082815260200191505060405180910390a250565b6000809054906101000a900473ffffffffffffffffffffffffffffffffffffffff1673ffffffffffffffffffffffffffffffffffffffff163373ffffffffffffffffffffffffffffffffffffffff1614612307576040517f08c379a000000000000000000000000000000000000000000000000000000000815260040180806020018281038252602d815260200180612544602d913960400191505060405180910390fd5b6000600b5414806123195750600b5442105b61236e576040517f08c379a00000000000000000000000000000000000000000000000000000000081526004018080602001828103825260358152602001806125f76035913960400191505060405180910390fd5b60001515600c60009054906101000a900460ff161515146123f7576040517f08c379a000000000000000000000000000000000000000000000000000000000815260040180806020018281038252601a8152602001807f54657374616d656e7420686173206265656e207265766f6b656400000000000081525060200191505060405180910390fd5b6000341161246d576040517f08c379a000000000000000000000000000000000000000000000000000000000815260040180806020018281038252601f8152602001807f5370656369667920616d6f756e7420746f206465706f73697420696e2074780081525060200191505060405180910390fd5b346005600082825401925050819055503373ffffffffffffffffffffffffffffffffffffffff167f90890809c654f11d6e72a28fa60149770a0d11ec6c92319d6ceb2bb0a4ea1a1534600554604051808381526020018281526020019250505060405180910390a2565b60085481565b600181815481106124ea57fe5b906000526020600020016000915054906101000a900473ffffffffffffffffffffffffffffffffffffffff1681565b6003548156fe53756d206f6620616c6c20736861726573206d7573742061646420757020746f203130304f6e6c792063726561746f7220697320616c6c6f77656420746f2063616c6c20746869732066756e6374696f6e53656e646572206973206e6f742061206c65676974696d6174652076616c696461746f72566f7465732068617665206265656e207375626d69747465642c20636f6e7369646572207265706c6163696e672076616c696461746f7273206669727374536861726520666f722065766572792062656e656669636961727920726571756972656457616974696e6720706572696f6420686173206265656e2065786365656465642c206e6f206d6f726520747820706f737369626c65496e76616c6964206e756d626572206f6620726571756972656420636f6e6669726d6174696f6e73a265627a7a7231582019addb4a8f9d2e7076fe88b57d178473b9e9b88c96ba8460e47e208ec61870ae64736f6c6343000510003253756d206f6620616c6c20736861726573206d7573742061646420757020746f20313030536861726520666f722065766572792062656e6566696369617279207265717569726564496e76616c6964206e756d626572206f6620726571756972656420636f6e6669726d6174696f6e73",
  "source": "// SPDX-License-Identifier: MIT\npragma solidity >=0.4.21 <0.7.0;\n\ncontract DeathNote {\n    // Structs to track behaviour of participants\n    struct validatorState {\n        bool isValidator;\n        bool hasConfirmed;\n    }\n    \n    struct beneficiaryState {\n        bool isBeneficiary;\n        uint share;\n        bool shareClaimed;\n    }\n    \n    // State variables\n    address payable public creator;\n    // arrays are needed since mappings are virtually initialised (-> see Solidity docs)\n    address[] public trackValidators;\n    address[] public trackBeneficiaries;\n    uint public confirmationsRequired;\n    uint public waitingPeriodDays;\n    uint public balance;\n    uint public balanceFrozen;\n    bool public firstClaim = true;\n\t\n    uint public numConfirmations;\n    mapping(address => validatorState) validators;\n    mapping(address => beneficiaryState) beneficiaries;\n\t\n    uint public deadline;\n    bool public testamentRevoked;\n\n    // Events\n    event ConfirmDeath(address indexed sender);\n    event ClaimShare(address indexed sender, uint amount);\n    event RevokeTestament(address indexed creator);\n    event Deposit(address indexed sender, uint amount, uint newBalance);\n    event Withdrawal(address indexed sender, uint amount, uint newBalance);\n    event ReplaceValidators(address indexed sender, address[] newValidators, uint newConfReq);\n    event ReplaceBeneficiaries(address indexed sender, address[] newBeneficiaries, uint[] newShares);\n\n\n    // Modifiers\n    modifier validValidators(address[] memory _Validators, uint _ConfReq) {\n        require(_Validators.length > 0, \"Validators required\");\n        require(_ConfReq > 0 && _ConfReq <= _Validators.length, \"Invalid number of required confirmations\");\n        _;\n    }\n    \n    modifier validBeneficiaries(address[] memory _Beneficiaries, uint[] memory _Shares) {\n        require(_Beneficiaries.length > 0, \"Beneficiaries required\");\n\t    require(_Beneficiaries.length == _Shares.length, \"Share for every beneficiary required\");\n\t    uint sumShares = 0;\n        for(uint i=0; i<_Shares.length; i++) {\n            sumShares += _Shares[i];\n        }\n        require(sumShares == 100, \"Sum of all shares must add up to 100\");\n\t    _;\n    }\n    \n    modifier onlyCreator() {\n\trequire(msg.sender == creator, \"Only creator is allowed to call this function\");\n\t_;\n    }\n\t\n    modifier onlyValidator() {\n\trequire(validators[msg.sender].isValidator, \"Sender is not a legitimate validator\");\n\t_;\n    }\n\t\n    modifier onlyBeneficiary() {\n\trequire(beneficiaries[msg.sender].isBeneficiary, \"You are not a beneficiary\");\n\t_;\n    }\n\t\n    modifier notConfirmed() {\n\trequire(!validators[msg.sender].hasConfirmed, \"Confirmation already submitted\");\n\t_;\n    }\n\t\n    modifier deathConfirmed() {\n\trequire(deadline != 0, \"No confirmed death yet\");\n\trequire(now >= deadline, \"Waiting period has not ended yet\");\n\trequire(testamentRevoked == false, \"Testament has been revoked\");\n\t_;\n    }\n\t\n    // Idea: only allow creator to submit txs up to the end of the waiting period. Afterwards, block funds for beneficiaries\n    modifier deathNotConfirmed() {\n\trequire(deadline == 0 || now < deadline, \"Waiting period has been exceeded, no more tx possible\");\n\t_;\n    }\n\t\n    modifier shareNotClaimed() {\n\trequire(!beneficiaries[msg.sender].shareClaimed, \"Share already claimed\");\n\t_;\n    }\n\t\n    modifier notRevoked() {\n\trequire(testamentRevoked == false, \"Testament has been revoked\");\n\t_;\n    }\n\t\n    constructor(\n\t\taddress[] memory _validators,\n\t\taddress[] memory _beneficiaries,\n\t\tuint[] memory _shares,\n\t\tuint _confirmationsRequired,\n\t\tuint _waitingPeriodDays\n\t) public payable validValidators(_validators, _confirmationsRequired) validBeneficiaries(_beneficiaries, _shares) {\n\t    \n\tfor(uint i=0; i<_validators.length; i++) {\n\t    address validator = _validators[i];\n\t    // prevent zero address\n\t    require(validator != address(0), \"Invalid validator\");\n\t    // not placed in modifier to allow replacements\n\t    require(!validators[validator].isValidator, \"Non-unique validator\");\n\t    validators[validator].isValidator = true;\n\t    trackValidators.push(validator);\n\t}\n\t    \n\tfor(uint i=0; i<_beneficiaries.length; i++) {\n\t    address beneficiary = _beneficiaries[i];\n\t    // prevent zero address and duplicates\n\t    require(beneficiary != address(0), \"Invalid beneficiary\");\n\t    // not placed in modifier to allow replacements\n\t    require(!beneficiaries[beneficiary].isBeneficiary, \"Non-unique beneficiary\");\n\t    beneficiaries[beneficiary].isBeneficiary = true;\n\t    beneficiaries[beneficiary].share = _shares[i];\n\t    trackBeneficiaries.push(beneficiary);\n\t}\n\t    \n\tconfirmationsRequired = _confirmationsRequired;\n\tcreator = msg.sender;\n\tbalance = msg.value;\n\tdeadline = 0;\n\twaitingPeriodDays = _waitingPeriodDays;\n    }\n\n    // NOTE -> Change time unit to days for a shipping version (seconds for demonstration purposes)\n    function confirmDeath() public onlyValidator notConfirmed {\n\tvalidators[msg.sender].hasConfirmed = true;\n\tnumConfirmations += 1;\n\temit ConfirmDeath(msg.sender);\n\t    \n\tif (numConfirmations == confirmationsRequired) {\n\t    deadline = now + (waitingPeriodDays * 1 seconds);\n\t}\n    }\n\t\n    function claimInheritanceShare() public onlyBeneficiary deathConfirmed shareNotClaimed {\n\t// Idea: Every beneficiary needs to claim its share on its own\n\n\tif (firstClaim) {\n\t    require(balance != 0, \"No inheritance left\");\n\t    balanceFrozen = balance;\n\t    firstClaim = false;\n\t}\n\t    \n\t// Use of withdrawal pattern for security reasons (see Solididty docs)\n\tuint amount = (beneficiaries[msg.sender].share * balanceFrozen) / 100;\n\tbalance -= amount;\n\tmsg.sender.transfer(amount);\n\tbeneficiaries[msg.sender].shareClaimed = true;\n\temit ClaimShare(msg.sender, amount);\n    }\n\t\n    function revokeTestament() public onlyCreator deathNotConfirmed notRevoked {\n\ttestamentRevoked = true;\n\t// prevention of re-entry attackes (see Solidity docs)\n\tuint amount = balance;\n\tbalance = 0;\n\tcreator.transfer(amount);\n\temit RevokeTestament(msg.sender);\n    }\n\t\n    function deposit() public payable onlyCreator deathNotConfirmed notRevoked {\n\trequire(msg.value > 0, \"Specify amount to deposit in tx\");\n\tbalance += msg.value;\n\temit Deposit(msg.sender, msg.value, balance);\n    }\n\t\n    function withdraw(uint _amount) public onlyCreator deathNotConfirmed notRevoked {\n\trequire(_amount <= balance, \"Balance not sufficient\");\n\tbalance -= _amount;\n\tcreator.transfer(_amount);\n\temit Withdrawal(msg.sender, _amount, balance);\n    }\n\t\n    // idea: give the creator a cheaper alternative to revoking the testament in case of malicious behaviour\n    function replaceValidators(address[] memory _newValidators, uint _newConfReq) public onlyCreator deathNotConfirmed notRevoked validValidators(_newValidators, _newConfReq) {\n\t// delete existing validators\n\tfor(uint i=0; i<trackValidators.length; i++) {\n\t    delete validators[trackValidators[i]];\n\t}\n\t    \n\tuint bound = trackValidators.length;\n\tfor(uint i=0; i<bound; i++) {\n\t    trackValidators.pop();\n\t}\n\t    \n\t// reset state variables\n\tnumConfirmations = 0;\n\tdeadline = 0;\n\t    \n\t// add newe validators\n\tfor(uint i=0; i<_newValidators.length; i++) {\n\t    address validator = _newValidators[i];\n\t    // prevent zero address and duplicates\n\t    require(validator != address(0), \"Invalid validator\");\n\t    require(!validators[validator].isValidator, \"Non-unique validator\");\n\t    validators[validator].isValidator = true;\n\t    trackValidators.push(validator);\n\t}\n\t    \n\tconfirmationsRequired = _newConfReq;\n\temit ReplaceValidators(msg.sender, _newValidators, _newConfReq);\n    }\n\t\n    function replaceBeneficiaries(address[] memory _newBeneficiaries, uint[] memory _newShares) public onlyCreator deathNotConfirmed notRevoked validBeneficiaries(_newBeneficiaries, _newShares) {\n\t// idea: only allow replacing beneficiaries if no vote has been submitted yet (-> remind creator about potential malicious behaviour)\n\trequire(numConfirmations == 0, \"Votes have been submitted, consider replacing validators first\");\n\t// delete existing beneficiaries\n\tfor(uint i=0; i<trackBeneficiaries.length; i++) {\n\t    delete beneficiaries[trackBeneficiaries[i]];\n\t}\n\t    \n\tuint bound = trackBeneficiaries.length;\n\tfor(uint i=0; i<bound; i++) {\n\t    trackBeneficiaries.pop();\n\t}\n\t    \n\t// add new beneficiaries\n\tfor(uint i=0; i<_newBeneficiaries.length; i++) {\n\t    address beneficiary = _newBeneficiaries[i];\n\t    // prevent zero address and duplicates\n\t    require(beneficiary != address(0), \"Invalid beneficiary\");\n\t    require(!beneficiaries[beneficiary].isBeneficiary, \"Non-unique beneficiary\");\n\t    beneficiaries[beneficiary].isBeneficiary = true;\n\t    beneficiaries[beneficiary].share = _newShares[i];\n\t    trackBeneficiaries.push(beneficiary);\n\t}\n\temit ReplaceBeneficiaries(msg.sender, _newBeneficiaries, _newShares);\n    }\n}\n",
  "sourcePath": "/deathnote/contracts/DeathNote.sol",
  "compiler": {
    "name": "solc",
    "version": "0.5.16+commit.9c3226ce.Emscripten.clang"
  },
  "schemaVersion": "3.3.4",
  "updatedAt": "2021-05-06T12:28:14.045Z",
  "networkType": "ethereum",
  "devdoc": {
    "methods": {}
  },
  "userdoc": {
    "methods": {}
  }
}