{
  "contractName": "DeathNote",
  "abi": [
    {
      "inputs": [],
      "payable": false,
      "stateMutability": "nonpayable",
      "type": "constructor"
    },
    {
      "constant": true,
      "inputs": [],
      "name": "owner",
      "outputs": [
        {
          "internalType": "address",
          "name": "",
          "type": "address"
        }
      ],
      "payable": false,
      "stateMutability": "view",
      "type": "function"
    },
    {
      "constant": false,
      "inputs": [],
      "name": "fund",
      "outputs": [],
      "payable": true,
      "stateMutability": "payable",
      "type": "function"
    },
    {
      "constant": false,
      "inputs": [
        {
          "internalType": "uint256",
          "name": "val",
          "type": "uint256"
        }
      ],
      "name": "withdrawOwner",
      "outputs": [],
      "payable": false,
      "stateMutability": "nonpayable",
      "type": "function"
    },
    {
      "constant": false,
      "inputs": [],
      "name": "withdrawInheritor",
      "outputs": [],
      "payable": false,
      "stateMutability": "nonpayable",
      "type": "function"
    },
    {
      "constant": true,
      "inputs": [],
      "name": "balance",
      "outputs": [
        {
          "internalType": "uint256",
          "name": "",
          "type": "uint256"
        }
      ],
      "payable": false,
      "stateMutability": "view",
      "type": "function"
    },
    {
      "constant": false,
      "inputs": [],
      "name": "deathConfirmation",
      "outputs": [],
      "payable": false,
      "stateMutability": "nonpayable",
      "type": "function"
    },
    {
      "constant": false,
      "inputs": [
        {
          "internalType": "address",
          "name": "addr",
          "type": "address"
        },
        {
          "internalType": "uint256",
          "name": "weight",
          "type": "uint256"
        }
      ],
      "name": "setInheritor",
      "outputs": [],
      "payable": false,
      "stateMutability": "nonpayable",
      "type": "function"
    },
    {
      "constant": false,
      "inputs": [
        {
          "internalType": "address",
          "name": "addr",
          "type": "address"
        }
      ],
      "name": "removeInheritor",
      "outputs": [],
      "payable": false,
      "stateMutability": "nonpayable",
      "type": "function"
    },
    {
      "constant": true,
      "inputs": [],
      "name": "getAllInheritors",
      "outputs": [
        {
          "internalType": "address[]",
          "name": "",
          "type": "address[]"
        },
        {
          "internalType": "uint256[]",
          "name": "",
          "type": "uint256[]"
        }
      ],
      "payable": false,
      "stateMutability": "view",
      "type": "function"
    },
    {
      "constant": true,
      "inputs": [
        {
          "internalType": "address",
          "name": "addr",
          "type": "address"
        }
      ],
      "name": "getWeight",
      "outputs": [
        {
          "internalType": "uint256",
          "name": "",
          "type": "uint256"
        }
      ],
      "payable": false,
      "stateMutability": "view",
      "type": "function"
    },
    {
      "constant": false,
      "inputs": [
        {
          "internalType": "address",
          "name": "addr",
          "type": "address"
        }
      ],
      "name": "setVoter",
      "outputs": [],
      "payable": false,
      "stateMutability": "nonpayable",
      "type": "function"
    },
    {
      "constant": false,
      "inputs": [
        {
          "internalType": "address",
          "name": "addr",
          "type": "address"
        }
      ],
      "name": "removeVoter",
      "outputs": [],
      "payable": false,
      "stateMutability": "nonpayable",
      "type": "function"
    }
  ],
  "bytecode": "0x6080604052600060035560006004556000600555600060065534801561002457600080fd5b50336000806101000a81548173ffffffffffffffffffffffffffffffffffffffff021916908373ffffffffffffffffffffffffffffffffffffffff160217905550610f85806100746000396000f3fe6080604052600436106100a75760003560e01c80639ba0cabc116100645780639ba0cabc1461020e578063ac6c525114610269578063b60d4288146102ce578063b69ef8a8146102d8578063cf701f3114610303578063d313a15e14610354576100a7565b80634bc2a657146100ac57806352f40be4146100fd5780635b747788146101145780636ef98b211461012b57806386c1ff68146101665780638da5cb5b146101b7575b600080fd5b3480156100b857600080fd5b506100fb600480360360208110156100cf57600080fd5b81019080803573ffffffffffffffffffffffffffffffffffffffff169060200190929190505050610408565b005b34801561010957600080fd5b50610112610590565b005b34801561012057600080fd5b5061012961075b565b005b34801561013757600080fd5b506101646004803603602081101561014e57600080fd5b810190808035906020019092919050505061076d565b005b34801561017257600080fd5b506101b56004803603602081101561018957600080fd5b81019080803573ffffffffffffffffffffffffffffffffffffffff16906020019092919050505061089c565b005b3480156101c357600080fd5b506101cc6109c2565b604051808273ffffffffffffffffffffffffffffffffffffffff1673ffffffffffffffffffffffffffffffffffffffff16815260200191505060405180910390f35b34801561021a57600080fd5b506102676004803603604081101561023157600080fd5b81019080803573ffffffffffffffffffffffffffffffffffffffff169060200190929190803590602001909291905050506109e7565b005b34801561027557600080fd5b506102b86004803603602081101561028c57600080fd5b81019080803573ffffffffffffffffffffffffffffffffffffffff169060200190929190505050610b53565b6040518082815260200191505060405180910390f35b6102d6610b9c565b005b3480156102e457600080fd5b506102ed610c79565b6040518082815260200191505060405180910390f35b34801561030f57600080fd5b506103526004803603602081101561032657600080fd5b81019080803573ffffffffffffffffffffffffffffffffffffffff169060200190929190505050610c83565b005b34801561036057600080fd5b50610369610d8d565b604051808060200180602001838103835285818151815260200191508051906020019060200280838360005b838110156103b0578082015181840152602081019050610395565b50505050905001838103825284818151815260200191508051906020019060200280838360005b838110156103f25780820151818401526020810190506103d7565b5050505090500194505050505060405180910390f35b6000809054906101000a900473ffffffffffffffffffffffffffffffffffffffff1673ffffffffffffffffffffffffffffffffffffffff163373ffffffffffffffffffffffffffffffffffffffff16146104ca576040517f08c379a000000000000000000000000000000000000000000000000000000000815260040180806020018281038252600f8152602001807f4e6f7420617574686f72697a65642e000000000000000000000000000000000081525060200191505060405180910390fd5b80600960006004600081548092919060010191905055815260200190815260200160002060006101000a81548173ffffffffffffffffffffffffffffffffffffffff021916908373ffffffffffffffffffffffffffffffffffffffff1602179055506001600a60008373ffffffffffffffffffffffffffffffffffffffff1673ffffffffffffffffffffffffffffffffffffffff16815260200190815260200160002060006101000a81548160ff0219169083600281111561058857fe5b021790555050565b6000600860003373ffffffffffffffffffffffffffffffffffffffff1673ffffffffffffffffffffffffffffffffffffffff168152602001908152602001600020541415610646576040517f08c379a000000000000000000000000000000000000000000000000000000000815260040180806020018281038252601d8152602001807f4e6f7420616c6c6f77656420746f207769746864726177206d6f6e657900000081525060200191505060405180910390fd5b603c60015460025403116106a5576040517f08c379a0000000000000000000000000000000000000000000000000000000008152600401808060200182810382526025815260200180610f2c6025913960400191505060405180910390fd5b60006064600860003373ffffffffffffffffffffffffffffffffffffffff1673ffffffffffffffffffffffffffffffffffffffff1681526020019081526020016000205460065402816106f457fe5b0490508060055410610758573373ffffffffffffffffffffffffffffffffffffffff166108fc829081150290604051600060405180830381858888f19350505050158015610746573d6000803e3d6000fd5b50806005600082825403925050819055505b50565b60055460068190555042600181905550565b6000809054906101000a900473ffffffffffffffffffffffffffffffffffffffff1673ffffffffffffffffffffffffffffffffffffffff163373ffffffffffffffffffffffffffffffffffffffff161461082f576040517f08c379a000000000000000000000000000000000000000000000000000000000815260040180806020018281038252600f8152602001807f4e6f7420617574686f72697a65642e000000000000000000000000000000000081525060200191505060405180910390fd5b8060055410610899573373ffffffffffffffffffffffffffffffffffffffff166108fc829081150290604051600060405180830381858888f1935050505015801561087e573d6000803e3d6000fd5b50806005600082825403925050819055506005546006819055505b50565b6000809054906101000a900473ffffffffffffffffffffffffffffffffffffffff1673ffffffffffffffffffffffffffffffffffffffff163373ffffffffffffffffffffffffffffffffffffffff161461095e576040517f08c379a000000000000000000000000000000000000000000000000000000000815260040180806020018281038252600f8152602001807f4e6f7420617574686f72697a65642e000000000000000000000000000000000081525060200191505060405180910390fd5b6002600a60008373ffffffffffffffffffffffffffffffffffffffff1673ffffffffffffffffffffffffffffffffffffffff16815260200190815260200160002060006101000a81548160ff021916908360028111156109ba57fe5b021790555050565b6000809054906101000a900473ffffffffffffffffffffffffffffffffffffffff1681565b6000809054906101000a900473ffffffffffffffffffffffffffffffffffffffff1673ffffffffffffffffffffffffffffffffffffffff163373ffffffffffffffffffffffffffffffffffffffff1614610aa9576040517f08c379a000000000000000000000000000000000000000000000000000000000815260040180806020018281038252600f8152602001807f4e6f7420617574686f72697a65642e000000000000000000000000000000000081525060200191505060405180910390fd5b81600760006003600081548092919060010191905055815260200190815260200160002060006101000a81548173ffffffffffffffffffffffffffffffffffffffff021916908373ffffffffffffffffffffffffffffffffffffffff16021790555080600860008473ffffffffffffffffffffffffffffffffffffffff1673ffffffffffffffffffffffffffffffffffffffff168152602001908152602001600020819055505050565b6000600860008373ffffffffffffffffffffffffffffffffffffffff1673ffffffffffffffffffffffffffffffffffffffff168152602001908152602001600020549050919050565b6000809054906101000a900473ffffffffffffffffffffffffffffffffffffffff1673ffffffffffffffffffffffffffffffffffffffff163373ffffffffffffffffffffffffffffffffffffffff1614610c5e576040517f08c379a000000000000000000000000000000000000000000000000000000000815260040180806020018281038252600f8152602001807f4e6f7420617574686f72697a65642e000000000000000000000000000000000081525060200191505060405180910390fd5b34600560008282540192505081905550600554600681905550565b6000600554905090565b6000809054906101000a900473ffffffffffffffffffffffffffffffffffffffff1673ffffffffffffffffffffffffffffffffffffffff163373ffffffffffffffffffffffffffffffffffffffff1614610d45576040517f08c379a000000000000000000000000000000000000000000000000000000000815260040180806020018281038252600f8152602001807f4e6f7420617574686f72697a65642e000000000000000000000000000000000081525060200191505060405180910390fd5b6000600860008373ffffffffffffffffffffffffffffffffffffffff1673ffffffffffffffffffffffffffffffffffffffff1681526020019081526020016000208190555050565b6060806060600354604051908082528060200260200182016040528015610dc35781602001602082028038833980820191505090505b5090506060600354604051908082528060200260200182016040528015610df95781602001602082028038833980820191505090505b50905060008090505b600354811015610f1e576007600082815260200190815260200160002060009054906101000a900473ffffffffffffffffffffffffffffffffffffffff16838281518110610e4c57fe5b602002602001019073ffffffffffffffffffffffffffffffffffffffff16908173ffffffffffffffffffffffffffffffffffffffff1681525050600860006007600084815260200190815260200160002060009054906101000a900473ffffffffffffffffffffffffffffffffffffffff1673ffffffffffffffffffffffffffffffffffffffff1673ffffffffffffffffffffffffffffffffffffffff16815260200190815260200160002054828281518110610f0557fe5b6020026020010181815250508080600101915050610e02565b508181935093505050909156fe526571756972656420363020646179732068617665206e6f7420796574207061737365642ea265627a7a72315820ab9b2841915e865c315fbb9db9a6fb22cdb1445e4d4e3323db4f6f8c3a11d41e64736f6c63430005100032",
  "source": "// SPDX-License-Identifier: MIT\npragma solidity >=0.4.21 <0.7.0;\n\ncontract DeathNote {\n  address public owner;\n  uint start;\n  uint end;\n  uint totalInheritors = 0;\n  uint totalVoters = 0;\n  uint amount = 0;\n  uint freezedAmount = 0; // after death confirmation\n  enum decision{DEATH, ALIVE, VOTELESS}\n\n  mapping (uint => address) inheritors;\n  mapping (address => uint) weights;\n  mapping (uint => address) voters;\n  mapping (address => decision) deathConfirmations;\n\n  constructor() public {\n    owner = msg.sender;\n  }\n\n  modifier restricted() {\n    require (\n      msg.sender == owner,\n      \"Not authorized.\"\n    );\n    _;\n  }\n\n  modifier isValidRecipient() {\n    require(\n      weights[msg.sender] != 0, // if key not exists, default uint value (0) is set\n      \"Not allowed to withdraw money\"\n    );\n    _;\n  }\n\n  modifier isValid() {\n    require(\n      end - start > 60,\n      \"Required 60 days have not yet passed.\"\n    );\n    _;\n  }\n\n  function fund() public payable restricted {\n    amount += msg.value;\n    freezedAmount = amount;\n  }\n\n  function withdrawOwner(uint val) public restricted {\n    if (amount >= val) {\n      msg.sender.transfer(val);\n      amount -= val;\n      freezedAmount = amount;\n    }\n  }\n\n  function withdrawInheritor() public isValidRecipient isValid {\n    uint weightedAmount = freezedAmount * weights[msg.sender] / 100;\n\n    if (amount >= weightedAmount) {\n      msg.sender.transfer(weightedAmount);\n      amount -= weightedAmount;\n    }\n  }\n\n  function balance() public view returns (uint) {\n    return amount;\n  }\n\n  function deathConfirmation() public {\n      // TODO: use MultiSig and send events to all participants\n      freezedAmount = amount;\n      start = block.timestamp;\n  }\n\n  function setInheritor(address addr, uint weight) public restricted {\n    inheritors[totalInheritors++] = addr;\n    weights[addr] = weight;\n  }\n  \n  function removeInheritor(address addr) public restricted {\n      weights[addr] = 0; // inheritor gets nothing\n  }\n\n  function getAllInheritors() public view returns (address[] memory, uint[] memory) {\n    address[] memory tmpAddrs = new address[](totalInheritors);\n    uint[] memory tmpWeights = new uint[](totalInheritors); \n\n    for(uint i = 0; i < totalInheritors; i++) {\n      tmpAddrs[i] = inheritors[i];\n      tmpWeights[i] = weights[inheritors[i]];\n    }\n    return (tmpAddrs, tmpWeights);\n  }\n\n  function getWeight(address addr) public view returns (uint) {\n    return weights[addr];\n  }\n\n  function setVoter(address addr) public restricted {\n    voters[totalVoters++] = addr;\n    deathConfirmations[addr] = decision.ALIVE; // default: alive\n  }\n  \n  function removeVoter(address addr) public restricted {\n      deathConfirmations[addr] = decision.VOTELESS; // voter lost right to vote\n  }\n}\n",
  "sourcePath": "/deathnote/contracts/DeathNote.sol",
  "compiler": {
    "name": "solc",
    "version": "0.5.16+commit.9c3226ce.Emscripten.clang"
  },
  "schemaVersion": "3.3.4",
  "updatedAt": "2021-04-18T21:45:29.315Z",
  "devdoc": {
    "methods": {}
  },
  "userdoc": {
    "methods": {}
  }
}